{
	"data": {
		"bytecode": {
			"linkReferences": {},
			"object": "60806040526040516040806105dc8339810180604052810190808051906020019092919080519060200190929190505050505061059b806100416000396000f300608060405260043610610057576000357c0100000000000000000000000000000000000000000000000000000000900463ffffffff1680635a81b5b91461006157806393e84cd91461008e578063e77ba2c914610098575b61005f6100c7565b005b34801561006d57600080fd5b5061008c600480360381019080803590602001909291905050506102cf565b005b6100966100c7565b005b3480156100a457600080fd5b506100ad610512565b604051808215151515815260200191505060405180910390f35b60006100e83373ffffffffffffffffffffffffffffffffffffffff1661055c565b15151561015d576040517f08c379a00000000000000000000000000000000000000000000000000000000081526004018080602001828103825260158152602001807f436f6e747261637473204e6f7420416c6c6f776564000000000000000000000081525060200191505060405180910390fd5b60009050346402540be4006305f5e1004281151561017757fe5b06021415610225576001905060016000803373ffffffffffffffffffffffffffffffffffffffff1673ffffffffffffffffffffffffffffffffffffffff16815260200190815260200160002060008282540192505081905550346001819055503373ffffffffffffffffffffffffffffffffffffffff166108fc6001549081150290604051600060405180830381858888f1935050505015801561021f573d6000803e3d6000fd5b50610272565b600060018190555060008060003373ffffffffffffffffffffffffffffffffffffffff1673ffffffffffffffffffffffffffffffffffffffff168152602001908152602001600020819055505b3373ffffffffffffffffffffffffffffffffffffffff167f88b17a1394c6d19f129494149a61ba6ea5a04a60c800f9bea1ac68e4b7d16044348360405180838152602001821515151581526020019250505060405180910390a250565b6102ee3373ffffffffffffffffffffffffffffffffffffffff1661055c565b151515610363576040517f08c379a00000000000000000000000000000000000000000000000000000000081526004018080602001828103825260158152602001807f436f6e747261637473204e6f7420416c6c6f776564000000000000000000000081525060200191505060405180910390fd5b61036b610512565b15156103df576040517f08c379a000000000000000000000000000000000000000000000000000000000815260040180806020018281038252600f8152602001807f55736572204e6f742057696e6e6572000000000000000000000000000000000081525060200191505060405180910390fd5b60008160015460020203111515610484576040517f08c379a00000000000000000000000000000000000000000000000000000000081526004018080602001828103825260398152602001807f57696e6e657273204d6179204f6e6c7920576974686472617720557020546f2081526020017f327820546865697220536372617463686361726420436f73740000000000000081525060400191505060405180910390fd5b60008060003373ffffffffffffffffffffffffffffffffffffffff1673ffffffffffffffffffffffffffffffffffffffff168152602001908152602001600020819055503373ffffffffffffffffffffffffffffffffffffffff166108fc829081150290604051600060405180830381858888f1935050505015801561050e573d6000803e3d6000fd5b5050565b600060196000803373ffffffffffffffffffffffffffffffffffffffff1673ffffffffffffffffffffffffffffffffffffffff168152602001908152602001600020541015905090565b600080823b9050600081119150509190505600a165627a7a72305820c1dedf5d09a0f6f36ab6987f555563f1e62fda6eca648f70cd63a8c53119ea870029",
			"opcodes": "PUSH1 0x80 PUSH1 0x40 MSTORE PUSH1 0x40 MLOAD PUSH1 0x40 DUP1 PUSH2 0x5DC DUP4 CODECOPY DUP2 ADD DUP1 PUSH1 0x40 MSTORE DUP2 ADD SWAP1 DUP1 DUP1 MLOAD SWAP1 PUSH1 0x20 ADD SWAP1 SWAP3 SWAP2 SWAP1 DUP1 MLOAD SWAP1 PUSH1 0x20 ADD SWAP1 SWAP3 SWAP2 SWAP1 POP POP POP POP POP PUSH2 0x59B DUP1 PUSH2 0x41 PUSH1 0x0 CODECOPY PUSH1 0x0 RETURN STOP PUSH1 0x80 PUSH1 0x40 MSTORE PUSH1 0x4 CALLDATASIZE LT PUSH2 0x57 JUMPI PUSH1 0x0 CALLDATALOAD PUSH29 0x100000000000000000000000000000000000000000000000000000000 SWAP1 DIV PUSH4 0xFFFFFFFF AND DUP1 PUSH4 0x5A81B5B9 EQ PUSH2 0x61 JUMPI DUP1 PUSH4 0x93E84CD9 EQ PUSH2 0x8E JUMPI DUP1 PUSH4 0xE77BA2C9 EQ PUSH2 0x98 JUMPI JUMPDEST PUSH2 0x5F PUSH2 0xC7 JUMP JUMPDEST STOP JUMPDEST CALLVALUE DUP1 ISZERO PUSH2 0x6D JUMPI PUSH1 0x0 DUP1 REVERT JUMPDEST POP PUSH2 0x8C PUSH1 0x4 DUP1 CALLDATASIZE SUB DUP2 ADD SWAP1 DUP1 DUP1 CALLDATALOAD SWAP1 PUSH1 0x20 ADD SWAP1 SWAP3 SWAP2 SWAP1 POP POP POP PUSH2 0x2CF JUMP JUMPDEST STOP JUMPDEST PUSH2 0x96 PUSH2 0xC7 JUMP JUMPDEST STOP JUMPDEST CALLVALUE DUP1 ISZERO PUSH2 0xA4 JUMPI PUSH1 0x0 DUP1 REVERT JUMPDEST POP PUSH2 0xAD PUSH2 0x512 JUMP JUMPDEST PUSH1 0x40 MLOAD DUP1 DUP3 ISZERO ISZERO ISZERO ISZERO DUP2 MSTORE PUSH1 0x20 ADD SWAP2 POP POP PUSH1 0x40 MLOAD DUP1 SWAP2 SUB SWAP1 RETURN JUMPDEST PUSH1 0x0 PUSH2 0xE8 CALLER PUSH20 0xFFFFFFFFFFFFFFFFFFFFFFFFFFFFFFFFFFFFFFFF AND PUSH2 0x55C JUMP JUMPDEST ISZERO ISZERO ISZERO PUSH2 0x15D JUMPI PUSH1 0x40 MLOAD PUSH32 0x8C379A000000000000000000000000000000000000000000000000000000000 DUP2 MSTORE PUSH1 0x4 ADD DUP1 DUP1 PUSH1 0x20 ADD DUP3 DUP2 SUB DUP3 MSTORE PUSH1 0x15 DUP2 MSTORE PUSH1 0x20 ADD DUP1 PUSH32 0x436F6E747261637473204E6F7420416C6C6F7765640000000000000000000000 DUP2 MSTORE POP PUSH1 0x20 ADD SWAP2 POP POP PUSH1 0x40 MLOAD DUP1 SWAP2 SUB SWAP1 REVERT JUMPDEST PUSH1 0x0 SWAP1 POP CALLVALUE PUSH5 0x2540BE400 PUSH4 0x5F5E100 TIMESTAMP DUP2 ISZERO ISZERO PUSH2 0x177 JUMPI INVALID JUMPDEST MOD MUL EQ ISZERO PUSH2 0x225 JUMPI PUSH1 0x1 SWAP1 POP PUSH1 0x1 PUSH1 0x0 DUP1 CALLER PUSH20 0xFFFFFFFFFFFFFFFFFFFFFFFFFFFFFFFFFFFFFFFF AND PUSH20 0xFFFFFFFFFFFFFFFFFFFFFFFFFFFFFFFFFFFFFFFF AND DUP2 MSTORE PUSH1 0x20 ADD SWAP1 DUP2 MSTORE PUSH1 0x20 ADD PUSH1 0x0 KECCAK256 PUSH1 0x0 DUP3 DUP3 SLOAD ADD SWAP3 POP POP DUP2 SWAP1 SSTORE POP CALLVALUE PUSH1 0x1 DUP2 SWAP1 SSTORE POP CALLER PUSH20 0xFFFFFFFFFFFFFFFFFFFFFFFFFFFFFFFFFFFFFFFF AND PUSH2 0x8FC PUSH1 0x1 SLOAD SWAP1 DUP2 ISZERO MUL SWAP1 PUSH1 0x40 MLOAD PUSH1 0x0 PUSH1 0x40 MLOAD DUP1 DUP4 SUB DUP2 DUP6 DUP9 DUP9 CALL SWAP4 POP POP POP POP ISZERO DUP1 ISZERO PUSH2 0x21F JUMPI RETURNDATASIZE PUSH1 0x0 DUP1 RETURNDATACOPY RETURNDATASIZE PUSH1 0x0 REVERT JUMPDEST POP PUSH2 0x272 JUMP JUMPDEST PUSH1 0x0 PUSH1 0x1 DUP2 SWAP1 SSTORE POP PUSH1 0x0 DUP1 PUSH1 0x0 CALLER PUSH20 0xFFFFFFFFFFFFFFFFFFFFFFFFFFFFFFFFFFFFFFFF AND PUSH20 0xFFFFFFFFFFFFFFFFFFFFFFFFFFFFFFFFFFFFFFFF AND DUP2 MSTORE PUSH1 0x20 ADD SWAP1 DUP2 MSTORE PUSH1 0x20 ADD PUSH1 0x0 KECCAK256 DUP2 SWAP1 SSTORE POP JUMPDEST CALLER PUSH20 0xFFFFFFFFFFFFFFFFFFFFFFFFFFFFFFFFFFFFFFFF AND PUSH32 0x88B17A1394C6D19F129494149A61BA6EA5A04A60C800F9BEA1AC68E4B7D16044 CALLVALUE DUP4 PUSH1 0x40 MLOAD DUP1 DUP4 DUP2 MSTORE PUSH1 0x20 ADD DUP3 ISZERO ISZERO ISZERO ISZERO DUP2 MSTORE PUSH1 0x20 ADD SWAP3 POP POP POP PUSH1 0x40 MLOAD DUP1 SWAP2 SUB SWAP1 LOG2 POP JUMP JUMPDEST PUSH2 0x2EE CALLER PUSH20 0xFFFFFFFFFFFFFFFFFFFFFFFFFFFFFFFFFFFFFFFF AND PUSH2 0x55C JUMP JUMPDEST ISZERO ISZERO ISZERO PUSH2 0x363 JUMPI PUSH1 0x40 MLOAD PUSH32 0x8C379A000000000000000000000000000000000000000000000000000000000 DUP2 MSTORE PUSH1 0x4 ADD DUP1 DUP1 PUSH1 0x20 ADD DUP3 DUP2 SUB DUP3 MSTORE PUSH1 0x15 DUP2 MSTORE PUSH1 0x20 ADD DUP1 PUSH32 0x436F6E747261637473204E6F7420416C6C6F7765640000000000000000000000 DUP2 MSTORE POP PUSH1 0x20 ADD SWAP2 POP POP PUSH1 0x40 MLOAD DUP1 SWAP2 SUB SWAP1 REVERT JUMPDEST PUSH2 0x36B PUSH2 0x512 JUMP JUMPDEST ISZERO ISZERO PUSH2 0x3DF JUMPI PUSH1 0x40 MLOAD PUSH32 0x8C379A000000000000000000000000000000000000000000000000000000000 DUP2 MSTORE PUSH1 0x4 ADD DUP1 DUP1 PUSH1 0x20 ADD DUP3 DUP2 SUB DUP3 MSTORE PUSH1 0xF DUP2 MSTORE PUSH1 0x20 ADD DUP1 PUSH32 0x55736572204E6F742057696E6E65720000000000000000000000000000000000 DUP2 MSTORE POP PUSH1 0x20 ADD SWAP2 POP POP PUSH1 0x40 MLOAD DUP1 SWAP2 SUB SWAP1 REVERT JUMPDEST PUSH1 0x0 DUP2 PUSH1 0x1 SLOAD PUSH1 0x2 MUL SUB GT ISZERO ISZERO PUSH2 0x484 JUMPI PUSH1 0x40 MLOAD PUSH32 0x8C379A000000000000000000000000000000000000000000000000000000000 DUP2 MSTORE PUSH1 0x4 ADD DUP1 DUP1 PUSH1 0x20 ADD DUP3 DUP2 SUB DUP3 MSTORE PUSH1 0x39 DUP2 MSTORE PUSH1 0x20 ADD DUP1 PUSH32 0x57696E6E657273204D6179204F6E6C7920576974686472617720557020546F20 DUP2 MSTORE PUSH1 0x20 ADD PUSH32 0x327820546865697220536372617463686361726420436F737400000000000000 DUP2 MSTORE POP PUSH1 0x40 ADD SWAP2 POP POP PUSH1 0x40 MLOAD DUP1 SWAP2 SUB SWAP1 REVERT JUMPDEST PUSH1 0x0 DUP1 PUSH1 0x0 CALLER PUSH20 0xFFFFFFFFFFFFFFFFFFFFFFFFFFFFFFFFFFFFFFFF AND PUSH20 0xFFFFFFFFFFFFFFFFFFFFFFFFFFFFFFFFFFFFFFFF AND DUP2 MSTORE PUSH1 0x20 ADD SWAP1 DUP2 MSTORE PUSH1 0x20 ADD PUSH1 0x0 KECCAK256 DUP2 SWAP1 SSTORE POP CALLER PUSH20 0xFFFFFFFFFFFFFFFFFFFFFFFFFFFFFFFFFFFFFFFF AND PUSH2 0x8FC DUP3 SWAP1 DUP2 ISZERO MUL SWAP1 PUSH1 0x40 MLOAD PUSH1 0x0 PUSH1 0x40 MLOAD DUP1 DUP4 SUB DUP2 DUP6 DUP9 DUP9 CALL SWAP4 POP POP POP POP ISZERO DUP1 ISZERO PUSH2 0x50E JUMPI RETURNDATASIZE PUSH1 0x0 DUP1 RETURNDATACOPY RETURNDATASIZE PUSH1 0x0 REVERT JUMPDEST POP POP JUMP JUMPDEST PUSH1 0x0 PUSH1 0x19 PUSH1 0x0 DUP1 CALLER PUSH20 0xFFFFFFFFFFFFFFFFFFFFFFFFFFFFFFFFFFFFFFFF AND PUSH20 0xFFFFFFFFFFFFFFFFFFFFFFFFFFFFFFFFFFFFFFFF AND DUP2 MSTORE PUSH1 0x20 ADD SWAP1 DUP2 MSTORE PUSH1 0x20 ADD PUSH1 0x0 KECCAK256 SLOAD LT ISZERO SWAP1 POP SWAP1 JUMP JUMPDEST PUSH1 0x0 DUP1 DUP3 EXTCODESIZE SWAP1 POP PUSH1 0x0 DUP2 GT SWAP2 POP POP SWAP2 SWAP1 POP JUMP STOP LOG1 PUSH6 0x627A7A723058 KECCAK256 0xc1 0xde 0xdf 0x5d MULMOD LOG0 0xf6 RETURN PUSH11 0xB6987F555563F1E62FDA6E 0xca PUSH5 0x8F70CD63A8 0xc5 BALANCE NOT 0xea DUP8 STOP 0x29 "
		},
		"gasEstimates": {
			"creation": {
				"codeDepositCost": "287000",
				"executionCost": "418",
				"totalCost": "287418"
			},
			"external": {
				"": "infinite",
				"checkIfMegaJackpotWinner()": "556",
				"collectMegaJackpot(uint256)": "infinite",
				"play()": "infinite"
			}
		},
		"methodIdentifiers": {
			"checkIfMegaJackpotWinner()": "e77ba2c9",
			"collectMegaJackpot(uint256)": "5a81b5b9",
			"play()": "93e84cd9"
		}
	},
	"abi": [
		{
			"constant": false,
			"inputs": [
				{
					"name": "_amount",
					"type": "uint256"
				}
			],
			"name": "collectMegaJackpot",
			"outputs": [],
			"payable": false,
			"stateMutability": "nonpayable",
			"type": "function"
		},
		{
			"constant": false,
			"inputs": [],
			"name": "play",
			"outputs": [],
			"payable": true,
			"stateMutability": "payable",
			"type": "function"
		},
		{
			"constant": true,
			"inputs": [],
			"name": "checkIfMegaJackpotWinner",
			"outputs": [
				{
					"name": "",
					"type": "bool"
				}
			],
			"payable": false,
			"stateMutability": "view",
			"type": "function"
		},
		{
			"inputs": [
				{
					"name": "_ctfLauncher",
					"type": "address"
				},
				{
					"name": "_player",
					"type": "address"
				}
			],
			"payable": true,
			"stateMutability": "payable",
			"type": "constructor"
		},
		{
			"payable": true,
			"stateMutability": "payable",
			"type": "fallback"
		},
		{
			"anonymous": false,
			"inputs": [
				{
					"indexed": true,
					"name": "player",
					"type": "address"
				},
				{
					"indexed": false,
					"name": "cost",
					"type": "uint256"
				},
				{
					"indexed": false,
					"name": "winner",
					"type": "bool"
				}
			],
			"name": "CardPurchased",
			"type": "event"
		}
	]
}