{
	"data": {
		"bytecode": {
			"linkReferences": {},
			"object": "60806040526040516040806105998339810180604052810190808051906020019092919080519060200190929190505050610052346000546100886401000000000261046a179091906401000000009004565b60008190555061007b600a6000546100a9640100000000026103e1179091906401000000009004565b60018190555050506100d3565b600080828401905083811015151561009f57600080fd5b8091505092915050565b6000806000831115156100bb57600080fd5b82848115156100c657fe5b0490508091505092915050565b6104b7806100e26000396000f300608060405260043610610057576000357c0100000000000000000000000000000000000000000000000000000000900463ffffffff16806313faede61461005c5780638acf70b214610087578063c23c87d5146100b2575b600080fd5b34801561006857600080fd5b506100716100d4565b6040518082815260200191505060405180910390f35b34801561009357600080fd5b5061009c6100da565b6040518082815260200191505060405180910390f35b6100d26004803603810190808035151590602001909291905050506100e0565b005b60015481565b60005481565b6000806001543414151561015c576040517f08c379a000000000000000000000000000000000000000000000000000000000815260040180806020018281038252601b8152602001807f496e636f7272656374205472616e73616374696f6e2056616c7565000000000081525060200191505060405180910390fd5b61017260026001546103e190919063ffffffff16565b60005410151515610211576040517f08c379a00000000000000000000000000000000000000000000000000000000081526004018080602001828103825260238152602001807f496e73756666696369656e742046756e647320696e2047616d6520436f6e747281526020017f616374000000000000000000000000000000000000000000000000000000000081525060400191505060405180910390fd5b6001430340915060017f01000000000000000000000000000000000000000000000000000000000000000282600060208110151561024b57fe5b1a7f01000000000000000000000000000000000000000000000000000000000000000216905060017f010000000000000000000000000000000000000000000000000000000000000002817effffffffffffffffffffffffffffffffffffffffffffffffffffffffffffff19161480156102c25750825b8061031b575060007f010000000000000000000000000000000000000000000000000000000000000002817effffffffffffffffffffffffffffffffffffffffffffffffffffffffffffff191614801561031a575082155b5b156103c0576103486103376002346103e190919063ffffffff16565b60005461040b90919063ffffffff16565b6000819055503373ffffffffffffffffffffffffffffffffffffffff166108fc61038f600261038160033461042c90919063ffffffff16565b6103e190919063ffffffff16565b9081150290604051600060405180830381858888f193505050501580156103ba573d6000803e3d6000fd5b506103dc565b6103d53460005461046a90919063ffffffff16565b6000819055505b505050565b6000806000831115156103f357600080fd5b82848115156103fe57fe5b0490508091505092915050565b60008083831115151561041d57600080fd5b82840390508091505092915050565b60008060008414156104415760009150610463565b828402905082848281151561045257fe5b0414151561045f57600080fd5b8091505b5092915050565b600080828401905083811015151561048157600080fd5b80915050929150505600a165627a7a723058201aeeafc7e984442158289790b5e1f71193dd169faa44b87d4b15c916c8b8171b0029",
			"opcodes": "PUSH1 0x80 PUSH1 0x40 MSTORE PUSH1 0x40 MLOAD PUSH1 0x40 DUP1 PUSH2 0x599 DUP4 CODECOPY DUP2 ADD DUP1 PUSH1 0x40 MSTORE DUP2 ADD SWAP1 DUP1 DUP1 MLOAD SWAP1 PUSH1 0x20 ADD SWAP1 SWAP3 SWAP2 SWAP1 DUP1 MLOAD SWAP1 PUSH1 0x20 ADD SWAP1 SWAP3 SWAP2 SWAP1 POP POP POP PUSH2 0x52 CALLVALUE PUSH1 0x0 SLOAD PUSH2 0x88 PUSH5 0x100000000 MUL PUSH2 0x46A OR SWAP1 SWAP2 SWAP1 PUSH5 0x100000000 SWAP1 DIV JUMP JUMPDEST PUSH1 0x0 DUP2 SWAP1 SSTORE POP PUSH2 0x7B PUSH1 0xA PUSH1 0x0 SLOAD PUSH2 0xA9 PUSH5 0x100000000 MUL PUSH2 0x3E1 OR SWAP1 SWAP2 SWAP1 PUSH5 0x100000000 SWAP1 DIV JUMP JUMPDEST PUSH1 0x1 DUP2 SWAP1 SSTORE POP POP POP PUSH2 0xD3 JUMP JUMPDEST PUSH1 0x0 DUP1 DUP3 DUP5 ADD SWAP1 POP DUP4 DUP2 LT ISZERO ISZERO ISZERO PUSH2 0x9F JUMPI PUSH1 0x0 DUP1 REVERT JUMPDEST DUP1 SWAP2 POP POP SWAP3 SWAP2 POP POP JUMP JUMPDEST PUSH1 0x0 DUP1 PUSH1 0x0 DUP4 GT ISZERO ISZERO PUSH2 0xBB JUMPI PUSH1 0x0 DUP1 REVERT JUMPDEST DUP3 DUP5 DUP2 ISZERO ISZERO PUSH2 0xC6 JUMPI INVALID JUMPDEST DIV SWAP1 POP DUP1 SWAP2 POP POP SWAP3 SWAP2 POP POP JUMP JUMPDEST PUSH2 0x4B7 DUP1 PUSH2 0xE2 PUSH1 0x0 CODECOPY PUSH1 0x0 RETURN STOP PUSH1 0x80 PUSH1 0x40 MSTORE PUSH1 0x4 CALLDATASIZE LT PUSH2 0x57 JUMPI PUSH1 0x0 CALLDATALOAD PUSH29 0x100000000000000000000000000000000000000000000000000000000 SWAP1 DIV PUSH4 0xFFFFFFFF AND DUP1 PUSH4 0x13FAEDE6 EQ PUSH2 0x5C JUMPI DUP1 PUSH4 0x8ACF70B2 EQ PUSH2 0x87 JUMPI DUP1 PUSH4 0xC23C87D5 EQ PUSH2 0xB2 JUMPI JUMPDEST PUSH1 0x0 DUP1 REVERT JUMPDEST CALLVALUE DUP1 ISZERO PUSH2 0x68 JUMPI PUSH1 0x0 DUP1 REVERT JUMPDEST POP PUSH2 0x71 PUSH2 0xD4 JUMP JUMPDEST PUSH1 0x40 MLOAD DUP1 DUP3 DUP2 MSTORE PUSH1 0x20 ADD SWAP2 POP POP PUSH1 0x40 MLOAD DUP1 SWAP2 SUB SWAP1 RETURN JUMPDEST CALLVALUE DUP1 ISZERO PUSH2 0x93 JUMPI PUSH1 0x0 DUP1 REVERT JUMPDEST POP PUSH2 0x9C PUSH2 0xDA JUMP JUMPDEST PUSH1 0x40 MLOAD DUP1 DUP3 DUP2 MSTORE PUSH1 0x20 ADD SWAP2 POP POP PUSH1 0x40 MLOAD DUP1 SWAP2 SUB SWAP1 RETURN JUMPDEST PUSH2 0xD2 PUSH1 0x4 DUP1 CALLDATASIZE SUB DUP2 ADD SWAP1 DUP1 DUP1 CALLDATALOAD ISZERO ISZERO SWAP1 PUSH1 0x20 ADD SWAP1 SWAP3 SWAP2 SWAP1 POP POP POP PUSH2 0xE0 JUMP JUMPDEST STOP JUMPDEST PUSH1 0x1 SLOAD DUP2 JUMP JUMPDEST PUSH1 0x0 SLOAD DUP2 JUMP JUMPDEST PUSH1 0x0 DUP1 PUSH1 0x1 SLOAD CALLVALUE EQ ISZERO ISZERO PUSH2 0x15C JUMPI PUSH1 0x40 MLOAD PUSH32 0x8C379A000000000000000000000000000000000000000000000000000000000 DUP2 MSTORE PUSH1 0x4 ADD DUP1 DUP1 PUSH1 0x20 ADD DUP3 DUP2 SUB DUP3 MSTORE PUSH1 0x1B DUP2 MSTORE PUSH1 0x20 ADD DUP1 PUSH32 0x496E636F7272656374205472616E73616374696F6E2056616C75650000000000 DUP2 MSTORE POP PUSH1 0x20 ADD SWAP2 POP POP PUSH1 0x40 MLOAD DUP1 SWAP2 SUB SWAP1 REVERT JUMPDEST PUSH2 0x172 PUSH1 0x2 PUSH1 0x1 SLOAD PUSH2 0x3E1 SWAP1 SWAP2 SWAP1 PUSH4 0xFFFFFFFF AND JUMP JUMPDEST PUSH1 0x0 SLOAD LT ISZERO ISZERO ISZERO PUSH2 0x211 JUMPI PUSH1 0x40 MLOAD PUSH32 0x8C379A000000000000000000000000000000000000000000000000000000000 DUP2 MSTORE PUSH1 0x4 ADD DUP1 DUP1 PUSH1 0x20 ADD DUP3 DUP2 SUB DUP3 MSTORE PUSH1 0x23 DUP2 MSTORE PUSH1 0x20 ADD DUP1 PUSH32 0x496E73756666696369656E742046756E647320696E2047616D6520436F6E7472 DUP2 MSTORE PUSH1 0x20 ADD PUSH32 0x6163740000000000000000000000000000000000000000000000000000000000 DUP2 MSTORE POP PUSH1 0x40 ADD SWAP2 POP POP PUSH1 0x40 MLOAD DUP1 SWAP2 SUB SWAP1 REVERT JUMPDEST PUSH1 0x1 NUMBER SUB BLOCKHASH SWAP2 POP PUSH1 0x1 PUSH32 0x100000000000000000000000000000000000000000000000000000000000000 MUL DUP3 PUSH1 0x0 PUSH1 0x20 DUP2 LT ISZERO ISZERO PUSH2 0x24B JUMPI INVALID JUMPDEST BYTE PUSH32 0x100000000000000000000000000000000000000000000000000000000000000 MUL AND SWAP1 POP PUSH1 0x1 PUSH32 0x100000000000000000000000000000000000000000000000000000000000000 MUL DUP2 PUSH31 0xFFFFFFFFFFFFFFFFFFFFFFFFFFFFFFFFFFFFFFFFFFFFFFFFFFFFFFFFFFFFFF NOT AND EQ DUP1 ISZERO PUSH2 0x2C2 JUMPI POP DUP3 JUMPDEST DUP1 PUSH2 0x31B JUMPI POP PUSH1 0x0 PUSH32 0x100000000000000000000000000000000000000000000000000000000000000 MUL DUP2 PUSH31 0xFFFFFFFFFFFFFFFFFFFFFFFFFFFFFFFFFFFFFFFFFFFFFFFFFFFFFFFFFFFFFF NOT AND EQ DUP1 ISZERO PUSH2 0x31A JUMPI POP DUP3 ISZERO JUMPDEST JUMPDEST ISZERO PUSH2 0x3C0 JUMPI PUSH2 0x348 PUSH2 0x337 PUSH1 0x2 CALLVALUE PUSH2 0x3E1 SWAP1 SWAP2 SWAP1 PUSH4 0xFFFFFFFF AND JUMP JUMPDEST PUSH1 0x0 SLOAD PUSH2 0x40B SWAP1 SWAP2 SWAP1 PUSH4 0xFFFFFFFF AND JUMP JUMPDEST PUSH1 0x0 DUP2 SWAP1 SSTORE POP CALLER PUSH20 0xFFFFFFFFFFFFFFFFFFFFFFFFFFFFFFFFFFFFFFFF AND PUSH2 0x8FC PUSH2 0x38F PUSH1 0x2 PUSH2 0x381 PUSH1 0x3 CALLVALUE PUSH2 0x42C SWAP1 SWAP2 SWAP1 PUSH4 0xFFFFFFFF AND JUMP JUMPDEST PUSH2 0x3E1 SWAP1 SWAP2 SWAP1 PUSH4 0xFFFFFFFF AND JUMP JUMPDEST SWAP1 DUP2 ISZERO MUL SWAP1 PUSH1 0x40 MLOAD PUSH1 0x0 PUSH1 0x40 MLOAD DUP1 DUP4 SUB DUP2 DUP6 DUP9 DUP9 CALL SWAP4 POP POP POP POP ISZERO DUP1 ISZERO PUSH2 0x3BA JUMPI RETURNDATASIZE PUSH1 0x0 DUP1 RETURNDATACOPY RETURNDATASIZE PUSH1 0x0 REVERT JUMPDEST POP PUSH2 0x3DC JUMP JUMPDEST PUSH2 0x3D5 CALLVALUE PUSH1 0x0 SLOAD PUSH2 0x46A SWAP1 SWAP2 SWAP1 PUSH4 0xFFFFFFFF AND JUMP JUMPDEST PUSH1 0x0 DUP2 SWAP1 SSTORE POP JUMPDEST POP POP POP JUMP JUMPDEST PUSH1 0x0 DUP1 PUSH1 0x0 DUP4 GT ISZERO ISZERO PUSH2 0x3F3 JUMPI PUSH1 0x0 DUP1 REVERT JUMPDEST DUP3 DUP5 DUP2 ISZERO ISZERO PUSH2 0x3FE JUMPI INVALID JUMPDEST DIV SWAP1 POP DUP1 SWAP2 POP POP SWAP3 SWAP2 POP POP JUMP JUMPDEST PUSH1 0x0 DUP1 DUP4 DUP4 GT ISZERO ISZERO ISZERO PUSH2 0x41D JUMPI PUSH1 0x0 DUP1 REVERT JUMPDEST DUP3 DUP5 SUB SWAP1 POP DUP1 SWAP2 POP POP SWAP3 SWAP2 POP POP JUMP JUMPDEST PUSH1 0x0 DUP1 PUSH1 0x0 DUP5 EQ ISZERO PUSH2 0x441 JUMPI PUSH1 0x0 SWAP2 POP PUSH2 0x463 JUMP JUMPDEST DUP3 DUP5 MUL SWAP1 POP DUP3 DUP5 DUP3 DUP2 ISZERO ISZERO PUSH2 0x452 JUMPI INVALID JUMPDEST DIV EQ ISZERO ISZERO PUSH2 0x45F JUMPI PUSH1 0x0 DUP1 REVERT JUMPDEST DUP1 SWAP2 POP JUMPDEST POP SWAP3 SWAP2 POP POP JUMP JUMPDEST PUSH1 0x0 DUP1 DUP3 DUP5 ADD SWAP1 POP DUP4 DUP2 LT ISZERO ISZERO ISZERO PUSH2 0x481 JUMPI PUSH1 0x0 DUP1 REVERT JUMPDEST DUP1 SWAP2 POP POP SWAP3 SWAP2 POP POP JUMP STOP LOG1 PUSH6 0x627A7A723058 KECCAK256 BYTE 0xee 0xaf 0xc7 0xe9 DUP5 DIFFICULTY 0x21 PC 0x28 SWAP8 SWAP1 0xb5 0xe1 0xf7 GT SWAP4 0xdd AND SWAP16 0xaa DIFFICULTY 0xb8 PUSH30 0x4B15C916C8B8171B00290000000000000000000000000000000000000000 "
		},
		"gasEstimates": {
			"creation": {
				"codeDepositCost": "241400",
				"executionCost": "infinite",
				"totalCost": "infinite"
			},
			"external": {
				"cost()": "394",
				"gameFunds()": "416",
				"play(bool)": "infinite"
			}
		},
		"methodIdentifiers": {
			"cost()": "13faede6",
			"gameFunds()": "8acf70b2",
			"play(bool)": "c23c87d5"
		}
	},
	"abi": [
		{
			"constant": true,
			"inputs": [],
			"name": "cost",
			"outputs": [
				{
					"name": "",
					"type": "uint256"
				}
			],
			"payable": false,
			"stateMutability": "view",
			"type": "function"
		},
		{
			"constant": true,
			"inputs": [],
			"name": "gameFunds",
			"outputs": [
				{
					"name": "",
					"type": "uint256"
				}
			],
			"payable": false,
			"stateMutability": "view",
			"type": "function"
		},
		{
			"constant": false,
			"inputs": [
				{
					"name": "_heads",
					"type": "bool"
				}
			],
			"name": "play",
			"outputs": [],
			"payable": true,
			"stateMutability": "payable",
			"type": "function"
		},
		{
			"inputs": [
				{
					"name": "_ctfLauncher",
					"type": "address"
				},
				{
					"name": "_player",
					"type": "address"
				}
			],
			"payable": true,
			"stateMutability": "payable",
			"type": "constructor"
		}
	]
}