{
	"data": {
		"bytecode": {
			"linkReferences": {},
			"object": "608060405267128dfa6a90b280003073ffffffffffffffffffffffffffffffffffffffff163114156100465760016000806101000a81548160ff0219169083151502179055505b60ae806100546000396000f300608060405260043610603f576000357c0100000000000000000000000000000000000000000000000000000000900463ffffffff1680631c9568be146044575b600080fd5b348015604f57600080fd5b5060566070565b604051808215151515815260200191505060405180910390f35b6000809054906101000a900460ff16815600a165627a7a72305820043df4e4883a36dd24ae9dedbb34c088275df70c4e7f808bf018ddbb04ed7b2d0029",
			"opcodes": "PUSH1 0x80 PUSH1 0x40 MSTORE PUSH8 0x128DFA6A90B28000 ADDRESS PUSH20 0xFFFFFFFFFFFFFFFFFFFFFFFFFFFFFFFFFFFFFFFF AND BALANCE EQ ISZERO PUSH2 0x46 JUMPI PUSH1 0x1 PUSH1 0x0 DUP1 PUSH2 0x100 EXP DUP2 SLOAD DUP2 PUSH1 0xFF MUL NOT AND SWAP1 DUP4 ISZERO ISZERO MUL OR SWAP1 SSTORE POP JUMPDEST PUSH1 0xAE DUP1 PUSH2 0x54 PUSH1 0x0 CODECOPY PUSH1 0x0 RETURN STOP PUSH1 0x80 PUSH1 0x40 MSTORE PUSH1 0x4 CALLDATASIZE LT PUSH1 0x3F JUMPI PUSH1 0x0 CALLDATALOAD PUSH29 0x100000000000000000000000000000000000000000000000000000000 SWAP1 DIV PUSH4 0xFFFFFFFF AND DUP1 PUSH4 0x1C9568BE EQ PUSH1 0x44 JUMPI JUMPDEST PUSH1 0x0 DUP1 REVERT JUMPDEST CALLVALUE DUP1 ISZERO PUSH1 0x4F JUMPI PUSH1 0x0 DUP1 REVERT JUMPDEST POP PUSH1 0x56 PUSH1 0x70 JUMP JUMPDEST PUSH1 0x40 MLOAD DUP1 DUP3 ISZERO ISZERO ISZERO ISZERO DUP2 MSTORE PUSH1 0x20 ADD SWAP2 POP POP PUSH1 0x40 MLOAD DUP1 SWAP2 SUB SWAP1 RETURN JUMPDEST PUSH1 0x0 DUP1 SWAP1 SLOAD SWAP1 PUSH2 0x100 EXP SWAP1 DIV PUSH1 0xFF AND DUP2 JUMP STOP LOG1 PUSH6 0x627A7A723058 KECCAK256 DIV RETURNDATASIZE DELEGATECALL 0xe4 DUP9 GASPRICE CALLDATASIZE 0xdd 0x24 0xae SWAP14 0xed 0xbb CALLVALUE 0xc0 DUP9 0x27 0x5d 0xf7 0xc 0x4e PUSH32 0x808BF018DDBB04ED7B2D00290000000000000000000000000000000000000000 "
		},
		"gasEstimates": {
			"creation": {
				"codeDepositCost": "34800",
				"executionCost": "20761",
				"totalCost": "55561"
			},
			"external": {
				"debugMode()": "442"
			}
		},
		"methodIdentifiers": {
			"debugMode()": "1c9568be"
		}
	},
	"abi": [
		{
			"constant": true,
			"inputs": [],
			"name": "debugMode",
			"outputs": [
				{
					"name": "",
					"type": "bool"
				}
			],
			"payable": false,
			"stateMutability": "view",
			"type": "function"
		},
		{
			"inputs": [],
			"payable": true,
			"stateMutability": "payable",
			"type": "constructor"
		}
	]
}