{
	"data": {
		"bytecode": {
			"linkReferences": {},
			"object": "608060405234801561001057600080fd5b50610304806100206000396000f300608060405260043610610057576000357c0100000000000000000000000000000000000000000000000000000000900463ffffffff1680630b6e2f291461005957806312065fe0146100e9578063d018db3e14610114575b005b34801561006557600080fd5b506100a7600480360381019080803573ffffffffffffffffffffffffffffffffffffffff169060200190929190803560ff169060200190929190505050610162565b604051808273ffffffffffffffffffffffffffffffffffffffff1673ffffffffffffffffffffffffffffffffffffffff16815260200191505060405180910390f35b3480156100f557600080fd5b506100fe61025f565b6040518082815260200191505060405180910390f35b610148600480360381019080803573ffffffffffffffffffffffffffffffffffffffff16906020019092919050505061027e565b604051808215151515815260200191505060405180910390f35b6000607f8260ff1610151561017657600080fd5b60d660948484604051808560ff167f01000000000000000000000000000000000000000000000000000000000000000281526001018460ff167f01000000000000000000000000000000000000000000000000000000000000000281526001018373ffffffffffffffffffffffffffffffffffffffff1673ffffffffffffffffffffffffffffffffffffffff166c010000000000000000000000000281526014018260ff1660ff167f0100000000000000000000000000000000000000000000000000000000000000028152600101945050505050604051809103902060019004905092915050565b60003073ffffffffffffffffffffffffffffffffffffffff1631905090565b60008173ffffffffffffffffffffffffffffffffffffffff166108fc67128dfa6a90b280009081150290604051600060405180830381858888f193505050501580156102ce573d6000803e3d6000fd5b50600190509190505600a165627a7a72305820de46e7ecd9fcab70d7a056f6115086ad1059b46bfd3e619988a23e505d1e16ad0029",
			"opcodes": "PUSH1 0x80 PUSH1 0x40 MSTORE CALLVALUE DUP1 ISZERO PUSH2 0x10 JUMPI PUSH1 0x0 DUP1 REVERT JUMPDEST POP PUSH2 0x304 DUP1 PUSH2 0x20 PUSH1 0x0 CODECOPY PUSH1 0x0 RETURN STOP PUSH1 0x80 PUSH1 0x40 MSTORE PUSH1 0x4 CALLDATASIZE LT PUSH2 0x57 JUMPI PUSH1 0x0 CALLDATALOAD PUSH29 0x100000000000000000000000000000000000000000000000000000000 SWAP1 DIV PUSH4 0xFFFFFFFF AND DUP1 PUSH4 0xB6E2F29 EQ PUSH2 0x59 JUMPI DUP1 PUSH4 0x12065FE0 EQ PUSH2 0xE9 JUMPI DUP1 PUSH4 0xD018DB3E EQ PUSH2 0x114 JUMPI JUMPDEST STOP JUMPDEST CALLVALUE DUP1 ISZERO PUSH2 0x65 JUMPI PUSH1 0x0 DUP1 REVERT JUMPDEST POP PUSH2 0xA7 PUSH1 0x4 DUP1 CALLDATASIZE SUB DUP2 ADD SWAP1 DUP1 DUP1 CALLDATALOAD PUSH20 0xFFFFFFFFFFFFFFFFFFFFFFFFFFFFFFFFFFFFFFFF AND SWAP1 PUSH1 0x20 ADD SWAP1 SWAP3 SWAP2 SWAP1 DUP1 CALLDATALOAD PUSH1 0xFF AND SWAP1 PUSH1 0x20 ADD SWAP1 SWAP3 SWAP2 SWAP1 POP POP POP PUSH2 0x162 JUMP JUMPDEST PUSH1 0x40 MLOAD DUP1 DUP3 PUSH20 0xFFFFFFFFFFFFFFFFFFFFFFFFFFFFFFFFFFFFFFFF AND PUSH20 0xFFFFFFFFFFFFFFFFFFFFFFFFFFFFFFFFFFFFFFFF AND DUP2 MSTORE PUSH1 0x20 ADD SWAP2 POP POP PUSH1 0x40 MLOAD DUP1 SWAP2 SUB SWAP1 RETURN JUMPDEST CALLVALUE DUP1 ISZERO PUSH2 0xF5 JUMPI PUSH1 0x0 DUP1 REVERT JUMPDEST POP PUSH2 0xFE PUSH2 0x25F JUMP JUMPDEST PUSH1 0x40 MLOAD DUP1 DUP3 DUP2 MSTORE PUSH1 0x20 ADD SWAP2 POP POP PUSH1 0x40 MLOAD DUP1 SWAP2 SUB SWAP1 RETURN JUMPDEST PUSH2 0x148 PUSH1 0x4 DUP1 CALLDATASIZE SUB DUP2 ADD SWAP1 DUP1 DUP1 CALLDATALOAD PUSH20 0xFFFFFFFFFFFFFFFFFFFFFFFFFFFFFFFFFFFFFFFF AND SWAP1 PUSH1 0x20 ADD SWAP1 SWAP3 SWAP2 SWAP1 POP POP POP PUSH2 0x27E JUMP JUMPDEST PUSH1 0x40 MLOAD DUP1 DUP3 ISZERO ISZERO ISZERO ISZERO DUP2 MSTORE PUSH1 0x20 ADD SWAP2 POP POP PUSH1 0x40 MLOAD DUP1 SWAP2 SUB SWAP1 RETURN JUMPDEST PUSH1 0x0 PUSH1 0x7F DUP3 PUSH1 0xFF AND LT ISZERO ISZERO PUSH2 0x176 JUMPI PUSH1 0x0 DUP1 REVERT JUMPDEST PUSH1 0xD6 PUSH1 0x94 DUP5 DUP5 PUSH1 0x40 MLOAD DUP1 DUP6 PUSH1 0xFF AND PUSH32 0x100000000000000000000000000000000000000000000000000000000000000 MUL DUP2 MSTORE PUSH1 0x1 ADD DUP5 PUSH1 0xFF AND PUSH32 0x100000000000000000000000000000000000000000000000000000000000000 MUL DUP2 MSTORE PUSH1 0x1 ADD DUP4 PUSH20 0xFFFFFFFFFFFFFFFFFFFFFFFFFFFFFFFFFFFFFFFF AND PUSH20 0xFFFFFFFFFFFFFFFFFFFFFFFFFFFFFFFFFFFFFFFF AND PUSH13 0x1000000000000000000000000 MUL DUP2 MSTORE PUSH1 0x14 ADD DUP3 PUSH1 0xFF AND PUSH1 0xFF AND PUSH32 0x100000000000000000000000000000000000000000000000000000000000000 MUL DUP2 MSTORE PUSH1 0x1 ADD SWAP5 POP POP POP POP POP PUSH1 0x40 MLOAD DUP1 SWAP2 SUB SWAP1 KECCAK256 PUSH1 0x1 SWAP1 DIV SWAP1 POP SWAP3 SWAP2 POP POP JUMP JUMPDEST PUSH1 0x0 ADDRESS PUSH20 0xFFFFFFFFFFFFFFFFFFFFFFFFFFFFFFFFFFFFFFFF AND BALANCE SWAP1 POP SWAP1 JUMP JUMPDEST PUSH1 0x0 DUP2 PUSH20 0xFFFFFFFFFFFFFFFFFFFFFFFFFFFFFFFFFFFFFFFF AND PUSH2 0x8FC PUSH8 0x128DFA6A90B28000 SWAP1 DUP2 ISZERO MUL SWAP1 PUSH1 0x40 MLOAD PUSH1 0x0 PUSH1 0x40 MLOAD DUP1 DUP4 SUB DUP2 DUP6 DUP9 DUP9 CALL SWAP4 POP POP POP POP ISZERO DUP1 ISZERO PUSH2 0x2CE JUMPI RETURNDATASIZE PUSH1 0x0 DUP1 RETURNDATACOPY RETURNDATASIZE PUSH1 0x0 REVERT JUMPDEST POP PUSH1 0x1 SWAP1 POP SWAP2 SWAP1 POP JUMP STOP LOG1 PUSH6 0x627A7A723058 KECCAK256 0xde 0x46 0xe7 0xec 0xd9 0xfc 0xab PUSH17 0xD7A056F6115086AD1059B46BFD3E619988 LOG2 RETURNDATACOPY POP 0x5d 0x1e AND 0xad STOP 0x29 "
		},
		"gasEstimates": {
			"creation": {
				"codeDepositCost": "154400",
				"executionCost": "202",
				"totalCost": "154602"
			},
			"external": {
				"": "129",
				"attack(address)": "infinite",
				"getBalance()": "629",
				"newAddressForAddrAndNonce(address,uint8)": "578"
			}
		},
		"methodIdentifiers": {
			"attack(address)": "d018db3e",
			"getBalance()": "12065fe0",
			"newAddressForAddrAndNonce(address,uint8)": "0b6e2f29"
		}
	},
	"abi": [
		{
			"constant": true,
			"inputs": [
				{
					"name": "_baseAddr",
					"type": "address"
				},
				{
					"name": "nonce",
					"type": "uint8"
				}
			],
			"name": "newAddressForAddrAndNonce",
			"outputs": [
				{
					"name": "newAddress",
					"type": "address"
				}
			],
			"payable": false,
			"stateMutability": "view",
			"type": "function"
		},
		{
			"constant": true,
			"inputs": [],
			"name": "getBalance",
			"outputs": [
				{
					"name": "",
					"type": "uint256"
				}
			],
			"payable": false,
			"stateMutability": "view",
			"type": "function"
		},
		{
			"constant": false,
			"inputs": [
				{
					"name": "_victim",
					"type": "address"
				}
			],
			"name": "attack",
			"outputs": [
				{
					"name": "",
					"type": "bool"
				}
			],
			"payable": true,
			"stateMutability": "payable",
			"type": "function"
		},
		{
			"payable": true,
			"stateMutability": "payable",
			"type": "fallback"
		}
	]
}