{
	"data": {
		"bytecode": {
			"linkReferences": {},
			"object": "608060405234801561001057600080fd5b5060c68061001f6000396000f300608060405260043610603f576000357c0100000000000000000000000000000000000000000000000000000000900463ffffffff1680631beb2615146041575b005b348015604c57600080fd5b50607f600480360381019080803573ffffffffffffffffffffffffffffffffffffffff1690602001909291905050506081565b005b8073ffffffffffffffffffffffffffffffffffffffff16ff00a165627a7a7230582009f7518f419b327397eba9464333600e602bff5b0005e144fd438970297c879e0029",
			"opcodes": "PUSH1 0x80 PUSH1 0x40 MSTORE CALLVALUE DUP1 ISZERO PUSH2 0x10 JUMPI PUSH1 0x0 DUP1 REVERT JUMPDEST POP PUSH1 0xC6 DUP1 PUSH2 0x1F PUSH1 0x0 CODECOPY PUSH1 0x0 RETURN STOP PUSH1 0x80 PUSH1 0x40 MSTORE PUSH1 0x4 CALLDATASIZE LT PUSH1 0x3F JUMPI PUSH1 0x0 CALLDATALOAD PUSH29 0x100000000000000000000000000000000000000000000000000000000 SWAP1 DIV PUSH4 0xFFFFFFFF AND DUP1 PUSH4 0x1BEB2615 EQ PUSH1 0x41 JUMPI JUMPDEST STOP JUMPDEST CALLVALUE DUP1 ISZERO PUSH1 0x4C JUMPI PUSH1 0x0 DUP1 REVERT JUMPDEST POP PUSH1 0x7F PUSH1 0x4 DUP1 CALLDATASIZE SUB DUP2 ADD SWAP1 DUP1 DUP1 CALLDATALOAD PUSH20 0xFFFFFFFFFFFFFFFFFFFFFFFFFFFFFFFFFFFFFFFF AND SWAP1 PUSH1 0x20 ADD SWAP1 SWAP3 SWAP2 SWAP1 POP POP POP PUSH1 0x81 JUMP JUMPDEST STOP JUMPDEST DUP1 PUSH20 0xFFFFFFFFFFFFFFFFFFFFFFFFFFFFFFFFFFFFFFFF AND SELFDESTRUCT STOP LOG1 PUSH6 0x627A7A723058 KECCAK256 MULMOD 0xf7 MLOAD DUP16 COINBASE SWAP12 ORIGIN PUSH20 0x97EBA9464333600E602BFF5B0005E144FD438970 0x29 PUSH29 0x879E002900000000000000000000000000000000000000000000000000 "
		},
		"gasEstimates": {
			"creation": {
				"codeDepositCost": "39600",
				"executionCost": "93",
				"totalCost": "39693"
			},
			"external": {
				"": "85",
				"destruct(address)": "30195"
			}
		},
		"methodIdentifiers": {
			"destruct(address)": "1beb2615"
		}
	},
	"abi": [
		{
			"constant": false,
			"inputs": [
				{
					"name": "_aim",
					"type": "address"
				}
			],
			"name": "destruct",
			"outputs": [],
			"payable": false,
			"stateMutability": "nonpayable",
			"type": "function"
		},
		{
			"payable": true,
			"stateMutability": "payable",
			"type": "fallback"
		}
	]
}